:100000000C9446000C9465000C9465000C946500FB
:100010000C9465000C9465000C9465000C946500CC
:100020000C9465000C9465000C94E5010C9465003B
:100030000C9465000C9465000C9465000C946500AC
:100040000C94E9020C9465000C941D010C9465005D
:100050000C9465000C9404020C9465000C946500EB
:100060000C9465000C9465000C9465000C9465007C
:100070000C9465000C9465000C9465000C9465006C
:100080000C9465000C9465000C94650011241FBE4F
:10009000CFEFD0E1DEBFCDBF13E0A0E0B1E0E6E8F6
:1000A000F6E000E00BBF02C007900D92AE31B10741
:1000B000D9F714E0AEE1B3E001C01D92A037B1075B
:1000C000E1F70E9476000C9441030C94000008C0F4
:1000D0000000215030404FEF2F3F3407C9F7019700
:1000E000009719F020ED37E0F4CF0895FF920F93B9
:1000F0001F9378940E94CE008FEF84BB809364009E
:100100000E94C0020E94B6010E94CC0184E0F82E39
:1001100002E080E091E061E00E94E000C89BFECF39
:100120008EE191E060E00E94E00083E391E060E016
:100130000E94E0001091230305C088EE93E00E9426
:10014000670011501123C9F78BE591E060E00E9430
:10015000E00085E891E060E00E94E00086EB91E03D
:1001600060E00E94E00080912403882319F085B3A9
:10017000802702C085B38F2585BB8BE591E060E0C9
:100180000E94E0008AEE91E060E00E94E00015BA73
:1001900087EF91E062E00E94E000BBCF10929000F8
:1001A00087E689B988E98AB986E080939500089541
:1001B0005D9BFECF8CB908955F9BFECF8CB10895F7
:1001C000FC015D9BFECF1CB85D9BFECF6CB904C0EB
:1001D0005D9BFECF8CB9319680818823C9F75D9BEA
:1001E000FECF8DE08CB908950F931F93CF93DF93CB
:1001F000EC01162F042F5D9BFECF81E08CB95D9B37
:10020000FECF1CB95D9BFECFCE01612F0E948A01FB
:100210008CB95D9BFECF0CB905C05D9BFECF89916B
:100220008CB911501123C9F75D9BFECF8DE08CB9BD
:10023000DF91CF911F910F9108951F920F920FB6EA
:100240000F920BB60F9211241F932F933F934F934E
:100250005F936F937F938F939F93AF93BF93EF932E
:10026000FF9390911E039F3FD9F18CB1E92FF0E0ED
:10027000EE59FC4F80838D30B1F59730A1F5109188
:10028000640385E693E064E00E948A01181741F553
:1002900087B78E7F87BF80916203882311F40E9405
:1002A000C00280916203813041F4809165036091C6
:1002B0006603409167030E949E0280916203823030
:1002C00011F40E94B60180916203833031F4809171
:1002D0006503609166030E94AA0187B7816087BFAA
:1002E00010921E0303C09F5F90931E03FF91EF9136
:1002F000BF91AF919F918F917F916F915F914F913E
:100300003F912F911F910F900BBE0F900FBE0F903A
:100310001F901895DC01E0E007C08D91E827F0E020
:10032000EC5FFD4FE08161506623B9F78E2F089591
:10033000CF93DF93C0E0D0E0CE010E942C03FE01FA
:10034000EE5DFC4F80832196C034D105A9F7DF9183
:10035000CF91089590E00E9434030E94980182E2B8
:1003600093E060E442E00E94F40008950E94980146
:1003700082E293E060E442E00E94F400089586B7D0
:100380008D7F86BF86B78E7F86BF87B7816087BF28
:1003900012BE87E083BF08950E94BF0117B886B1DF
:1003A0008F6C86B9089586B78F7786BF86B78F7BA7
:1003B00086BF87B7806487BF14BC84E085BD08957D
:1003C00017B886B18F6C86B908951F920F920FB639
:1003D0000F9211248F939F9380912003853F41F4C6
:1003E0008091650098E08927809365001092200332
:1003F000809120038F5F809320039F918F910F90B6
:100400000FBE0F901F9018951F920F920FB60F926C
:100410000BB60F9211242F934F935F938F939F935B
:10042000EF93FF932091210344B155B1822F90E0C7
:10043000880F991FE0911B03F0911C03E80FF91F2F
:10044000518340832F5F20932103243011F41092B5
:1004500021038091210387B9369AFF91EF919F91F3
:100460008F915F914F912F910F900BBE0F900FBE08
:100470000F901F901895CF92DF92EF92FF920F93FB
:100480001F93CF93DF93A4E0B3E060E070E0C1E09E
:10049000D0E011968C911197E82EFF2412968C9142
:1004A0001297082F10E0EC91F0E08081C82EDD2437
:1004B00030E040E050E0242FC601042E02C09595A4
:1004C00087950A94E2F780FF02C0F70101C0F801A6
:1004D000808190E0022E02C0959587950A94E2F7FC
:1004E00080FF08C0CE0102C0880F991F2A95E2F74D
:1004F000382B08C0CE0102C0880F991F2A95E2F759
:10050000809538234F5F5F4F48305105A1F6E09149
:100510001903F0911A03E60FF71F30836F5F7F4FC7
:1005200013966730710509F0B4CFDF91CF911F9119
:100530000F91FF90EF90DF90CF90089590E0FC0135
:10054000EE0FFF1FE80FF91FEC5FFC4F8181E82FD2
:10055000F0E02081442351F481E090E002C0880F54
:10056000991F6A95E2F78095282308C081E090E002
:1005700002C0880F991F6A95E2F7282B20830895FF
:10058000DF93CF93CDB7DEB727970FB6F894DEBFD2
:100590000FBECDBFA4E0B3E09E012F5F3F4FEC91B3
:1005A000F0E08081F90181939F011396F3E0A93176
:1005B000BF07A9F7CE01019667E040E00E94F40072
:1005C00027960FB6F894DEBF0FBECDBFCF91DF9157
:1005D00008951F920F920FB60F920BB60F9211242F
:1005E0002F933F934F935F936F937F938F939F933B
:1005F000AF93BF93EF93FF9380911F038E3111F45C
:100600000E943B0280911F038C3371F481E694E0D9
:100610006FE041E00E94F4008091650090E189273D
:100620008093650010921F0380911F038F5F80935A
:100630001F03FF91EF91BF91AF919F918F917F9198
:100640006F915F914F913F912F910F900BBE0F9043
:100650000FBE0F901F901895E199FECF9FBB8EBBE8
:10066000E09A99278DB30895262FE199FECF9FBB7D
:100670008EBB2DBB0FB6F894E29AE19A0FBE01969D
:060680000895F894FFCF7D
:10068600CEE6E8E4E0E5EC20EDE0E6E0F2E8E520A1
:10069600EAEDEEEFEAE82022CFF3F1EA2200CAED16
:1006A600EEEFEAE02022CFF3F1EA2220EDE0E6E0E9
:1006B600F2E000C7E0E4E5F0E6EAE020E220F1E55A
:1006C600EAF3EDE4E0F52022CFE0F0E0ECE5F2F02D
:1006D60020322220EDE0F7E0F2E000C7E0E4E5F0AA
:1006E600E6EAE020E220F1E5EAF3EDE4E0F5202297
:1006F600CFE0F0E0ECE5F2F020322220EEEAEEED7B
:10070600F7E5EDE000C5F1EBE82022CFE0F0E0EC04
:10071600E5F2F020332220F0E0E2E5ED203020C3C0
:10072600EEF0E8F220322DE920E2F5EEE420EFEEDD
:10073600F0F2E020D100C5F1EBE82022CFE0F0E0B6
:10074600ECE5F2F020332220EDE520F0E0E2E5EDE5
:10075600203020C3EEF0E8F220332DE920E2F5EE5A
:10076600E420EFEEF0F2E020D100D2F3F8E8EC203E
:10077600EFEEF0F220D100D6E8EAEB20EEEAEEED5D
:10078600F7E5ED00005EBCE2613FDD83C29C7E20A2
:10079600A3FD1F419DC3217FFCA2401E5F01E3BD57
:1007A6003E6082DC237D9FC1421CFEA0E1BF5D034B
:1007B60080DE3C62BEE0025CDF81633D7C22C09E3F
:1007C6001D43A1FF4618FAA427799BC584DA38662B
:1007D600E5BB5907DB856739BAE406581947A5FB17
:1007E6007826C49A653BD987045AB8E6A7F91B450B
:1007F600C6987A24F8A6441A99C7257B3A6486D8FF
:100806005B05E7B98CD2306EEDB3510F4E10F2ACEA
:100816002F7193CD114FADF3702ECC92D38D6F31D6
:10082600B2EC0E50AFF1134DCE90722C6D33D18FCA
:100836000C52B0EE326C8ED0530DEFB1F0AE4C12BE
:1008460091CF2D73CA947628ABF517490856B4EAAA
:100856006937D58B5709EBB536688AD495CB297796
:10086600F4AA4816E9B7550B88D6346A2B7597C98A
:100876004A14F6A8742AC896154BA9F7B6E80A547E
:10088600D7896B353A3B39373836343533313230E0
:0E08960022232161622064656361046804000E
:00000001FF
